:100000000C9462000C94E8030C94C1030C948A00D5
:100010000C948A000C948A000C948A000C948A0038
:100020000C948A000C948A000C948A000C948A0028
:100030000C948A000C948A000C948A000C948A0018
:100040000C9477030C948A000C9445030C941F03C2
:100050000C948A000C948A000C948A000C948A00F8
:100060000C948A000C948A000000000024002700F1
:100070002A0000000000250028002B0000000000DE
:1000800023002600290004040404040404040202DA
:100090000202020203030303030301020408102007
:1000A0004080010204081020010204081020000012
:1000B0000008000201000003040700000000000027
:1000C00000000F0411241FBECFEFD8E0DEBFCDBF6C
:1000D00011E0A0E0B1E0E4E8F1E102C005900D928A
:1000E000A631B107D9F721E0A6E1B1E001C01D9228
:1000F000AA3EB207E1F710E0C2E6D0E004C02197C3
:10010000FE010E94B508C136D107C9F70E94460416
:100110000C94C0080C940000CF92DF92EF92FF92F3
:100120000F931F93CF93DF936C017A018B01C0E093
:10013000D0E0CE15DF0589F0D8016D918D01D60193
:10014000ED91FC910190F081E02DC6010995892B7C
:1001500011F47E0102C02196ECCFC701DF91CF914F
:100160001F910F91FF90EF90DF90CF900895089529
:1001700080E090E00895FC01538D448D252F30E000
:10018000842F90E0821B930B541710F0CF960895A4
:1001900001970895FC01918D828D981761F0828DF1
:1001A000DF01A80FB11D5D968C91928D9F5F9F73AB
:1001B000928F90E008958FEF9FEF0895FC01918D4D
:1001C000828D981731F0828DE80FF11D858D90E0BA
:1001D00008958FEF9FEF0895FC01918D228D892F57
:1001E00090E0805C9F4F821B91098F73992708953F
:1001F00089E491E00E94EC0021E0892B09F420E0E1
:10020000822F0895FC01848DDF01A80FB11DA35A30
:10021000BF4F2C91848D90E001968F739927848F26
:10022000A689B7892C93A089B1898C9180648C931D
:10023000938D848D981306C00288F389E02D808108
:100240008F7D80830895EF92FF920F931F93CF933A
:10025000DF93EC0181E0888F9B8D8C8D981305C016
:10026000E889F989808185FD24C0F62E0B8D10E088
:100270000F5F1F4F0F731127E02E8C8DE8120CC0FB
:100280000FB607FCFACFE889F989808185FFF5CFA1
:10029000CE010E940201F1CF8B8DFE01E80FF11D0E
:1002A000E35AFF4FF0820B8FEA89FB8980818062DD
:1002B00007C0EE89FF896083E889F98980818064BD
:1002C000808381E090E0DF91CF911F910F91FF90AB
:1002D000EF900895CF93DF93EC01888D8823C9F0C8
:1002E000EA89FB89808185FD05C0A889B9898C913F
:1002F00086FD0FC00FB607FCF5CF808185FFF2CFDA
:10030000A889B9898C9185FFEDCFCE010E940201A9
:10031000E7CFDF91CF91089580E090E0892B29F01D
:100320000E94F80081110C9400000895833081F040
:1003300028F4813099F08230A1F008958730A9F037
:100340008830B9F08430D1F4809180008F7D03C073
:10035000809180008F7780938000089584B58F7797
:1003600002C084B58F7D84BD08958091B0008F77E1
:1003700003C08091B0008F7D8093B0000895CF932B
:10038000DF93E0EBF0E08491ECE9F0E0D491E8E871
:10039000F0E0C491CC2391F081110E949601EC2FE2
:1003A000F0E0EE0FFF1FE458FF4FA591B491EC91E0
:1003B000ED2381E090E021F480E002C080E090E055
:1003C000DF91CF9108951F93CF93DF93282F30E0D3
:1003D000F901E255FF4F8491F901E656FF4FD491A0
:1003E000F901EA57FF4FC491CC23C9F0162F8111B0
:1003F0000E949601EC2FF0E0EE0FFF1FEE58FF4F2A
:10040000A591B4918FB7F894111105C09C91ED2F6F
:10041000E095E92302C0EC91ED2BEC938FBFDF91C7
:10042000CF911F910895CF93DF9390E0FC01E656A2
:10043000FF4F2491FC01EA57FF4F8491882361F11B
:1004400090E0880F991FFC01E859FF4FC591D491A6
:10045000FC01EE58FF4FA591B491611109C09FB7FF
:10046000F8948881209582238883EC912E230BC0F9
:10047000623061F49FB7F8943881822F809583238E
:100480008883EC912E2B2C939FBF06C08FB7F894D6
:10049000E8812E2B28838FBFDF91CF9108953FB73E
:1004A000F89480911B0190911C01A0911D01B091C5
:1004B0001E0126B5A89B05C02F3F19F00196A11D6E
:1004C000B11D3FBFBA2FA92F982F8827820F911DEA
:1004D000A11DB11DBC01CD0142E0660F771F881F31
:1004E000991F4A95D1F708952FB7F8946091170195
:1004F000709118018091190190911A012FBF0895F0
:100500000E9474026093230170932401809325015B
:1005100090932601089508958F929F92AF92BF9273
:10052000CF92DF92EF92FF920F931F93CF93DF93BF
:10053000382F962EA42EB22EE601EF2829F4A22EF3
:10054000B42E832F362F982E8881998164E070E035
:100550000E948D088130910551F18CF4892B09F0AE
:1005600046C061E0832F0E94E30160E0892D0E9474
:10057000E30160E08A2D0E94E30161E025C0823042
:10058000910559F1039799F560E0832F0E94E301EB
:1005900060E0892D0E94E30161E08A2D0E94E30161
:1005A00061E08B2D0E94E3011982188220C061E076
:1005B000832F0E94E30161E0892D0E94E30160E046
:1005C0008A2D0E94E30160E08B2D0E94E301888167
:1005D00099810196998388830AC060E0832F0E94E5
:1005E000E30161E0892D0E94E30161E0E9CF0E940F
:1005F000740260931F0170932001809321019093F6
:1006000022014801110FAA08BB08860E971EA81EDA
:10061000B91E0E947402681579058A059B05C8F306
:10062000DF91CF911F910F91FF90EF90DF90CF90CE
:10063000BF90AF909F908F9008950E94BB081F922B
:100640000F920FB60F9211242F933F934F935F9306
:100650006F937F938F939F93AF93BF93EF93FF938A
:1006600089E491E00E940201FF91EF91BF91AF9167
:100670009F918F917F916F915F914F913F912F91BA
:100680000F900FBE0F901F9018951F920F920FB6EC
:100690000F9211242F938F939F93EF93FF93E091E9
:1006A0005901F0915A018081E0915F01F091600160
:1006B00082FD12C09081809162018F5F8F732091C3
:1006C0006301821751F0E0916201F0E0E75BFE4FB9
:1006D000958F8093620101C08081FF91EF919F917E
:1006E0008F912F910F900FBE0F901F9018951F9212
:1006F0000F920FB60F9211242F933F938F939F93D6
:10070000AF93BF938091170190911801A0911901A7
:10071000B0911A013091160123E0230F2D3720F4F8
:100720000196A11DB11D05C026E8230F0296A11D4B
:10073000B11D209316018093170190931801A09387
:100740001901B0931A0180911B0190911C01A09195
:100750001D01B0911E010196A11DB11D80931B01C9
:1007600090931C01A0931D01B0931E01BF91AF9106
:100770009F918F913F912F910F900FBE0F901F90DF
:1007800018951F920F920FB60F9211242F933F933B
:100790004F935F936F937F938F939F93AF93BF9389
:1007A000EF93FF93E0910201F09103010995FF910E
:1007B000EF91BF91AF919F918F917F916F915F91D9
:1007C0004F913F912F910F900FBE0F901F90189552
:1007D0001F920F920FB60F9211242F933F934F93B6
:1007E0005F936F937F938F939F93AF93BF93EF9399
:1007F000FF93E0910001F09101010995FF91EF91C4
:10080000BF91AF919F918F917F916F915F914F9128
:100810003F912F910F900FBE0F901F901895E9E414
:10082000F1E01382128288EE93E0A0E0B0E08483CE
:100830009583A683B78388E091E09183808385ECDC
:1008400090E09587848784EC90E09787868780EC9A
:1008500090E0918B808B81EC90E0938B828B82EC8B
:1008600090E0958B848B86EC90E0978B868B118E35
:10087000128E138E148E0E944F026093E6017093C5
:10088000E7018093E8019093E9010895789484B595
:10089000826084BD84B5816084BD85B5826085BD7C
:1008A00085B5816085BD80916E00816080936E000A
:1008B00010928100809181008260809381008091FC
:1008C00081008160809381008091800081608093AD
:1008D00080008091B10084608093B1008091B0006D
:1008E00081608093B00080917A00846080937A0068
:1008F00080917A00826080937A0080917A00816092
:1009000080937A0080917A00806880937A001092B8
:10091000C10062E082E00E94130280E892E09093BE
:1009200001018093000180916900836080936900D8
:10093000E89AC3E061E08C2F0E941302CF5FCB30B6
:10094000C9F761E080E10E94130262E08FE00E943B
:10095000130261E081E10E94130261E082E10E94E2
:10096000130261E083E10E94130261E081E00E94D2
:10097000130260E080E00E94130261E08BE00E94BD
:10098000130260E08CE00E94130260E08EE00E949F
:100990001302E0915901F0915A0182E08083E091C5
:1009A0005501F09156011082E0915701F0915801E4
:1009B0008FEC808310926101E0915D01F0915E0106
:1009C00086E08083E0915B01F0915C018081806131
:1009D0008083E0915B01F0915C018081886080837D
:1009E000E0915B01F0915C01808180688083E091FF
:1009F0005B01F0915C0180818F7D808360E081E00C
:100A00000E94E301109231011092320110923301E1
:100A10001092340110922C0110922B0181E090E091
:100A200090933B0180933A0110923E0110923F0156
:100A3000109240011092410180934601809347013A
:100A40001092480188248394A1E42A2E0E94BF01B9
:100A5000892B21F4109248018092470120927C005A
:100A600080917A00806480937A0080917A0086FD7C
:100A7000FCCF809178002091790090E0922B99240E
:100A80009394892B09F4912C90924701C0914601CF
:100A90006C2F8BE00E94E3010E9474022B013C0149
:100AA0006093420170934301809344019093450108
:100AB00080913E0190913F019201281B390BC901A1
:100AC000883E934078F06C2F6825609346018BE058
:100AD0000E94E30140923E0150923F01609240012A
:100AE0007092410130904801332019F0911003C0F9
:100AF00005C09920B1F0832D882514C02CE3C22EA7
:100B000021E0D22EEE24E394F12C0AE010E028E05C
:100B100030E047E050E06AE070E089E090E00E9459
:100B20008C0280E0C0913A01D0913B01882389F08A
:100B3000F8E3CF2EF1E0DF2E7E0100E010E024E0AC
:100B400030E043E050E066E070E085E090E00E9435
:100B50008C02992099F0311011C0E6E3CE2EE1E02D
:100B6000DE2E7E0100E010E021E130E040E150E0C7
:100B700063E170E082E190E00E948C020E944F02EB
:100B80006093E6017093E7018093E8019093E90197
:100B900020913501211122C0409031015090320145
:100BA0006090330170903401DC01CB018419950908
:100BB000A609B7090297A105B10580F061E081E0BF
:100BC0000E94E3010E944F02609331017093320151
:100BD0008093330190933401809235010E944F023B
:100BE0006093E6017093E7018093E8019093E90137
:100BF0004090310150903201609033017090340187
:100C0000DC01CB0184199509A609B7090A97A1054A
:100C1000B10590F060E081E00E94E3010E944F0284
:100C200060933101709332018093330190933401CA
:100C30001092350181E001C080E010922D011092E8
:100C40002E0110922F0110923001882309F4C0C0A8
:100C5000A0902B01B0902C01A114B10411F489B122
:100C600009C08CE0A816B10421F483B1829581708B
:100C700002C086B18170882379F30E944F022B0154
:100C80003C0160931F017093200180932101909398
:100C90002201A114B10411F489B109C09CE0A91684
:100CA000B10421F483B18295817002C086B1817054
:100CB0008111EFCF0E944F026419750986099709C7
:100CC0000E94690720E030E040E05FE30E94CF0728
:100CD00024E037EE4CE05DE30E94CF072B013C019E
:100CE00060932701709328018093290190932A0132
:100CF00020E030E048EC52E40E94CA0718167CF568
:100D0000A114B104A1F025E0A216B104B9F470E475
:100D1000A72EB12C992019F0332009F4B1C031E08D
:100D2000A31AB108B9F710922C0110922B0181E09F
:100D300090E090933B0180933A0111C08CE0A8169B
:100D4000B10469F460E4A62EB12C992019F0332087
:100D500009F4A8C091E0A91AB108B9F7E4CF20E0DE
:100D600030E048EC52E4C301B2010E946407181657
:100D70006CF080912B0190912C01009791F485E00B
:100D800090E090932C0180932B0122C020E030E072
:100D900048EC52E4C301B2010E9464071816C4F083
:100DA00009C0059739F42CE030E030932C012093F2
:100DB0002B010EC080912B0190912C010C9741F4D6
:100DC00010922C0110922B0110923B0110923A01CB
:100DD0000E94BF010197C9F50E947402609342010D
:100DE0007093430180934401909345014090230107
:100DF000509024016090250170902601DC01CB0108
:100E000084199509A609B709843F9140A105B10548
:100E1000C0F080924801109247014CE3C42E41E09B
:100E2000D42EEE24E394F12C00E010E028E030E032
:100E300047E050E06AE070E089E090E00E948C02B8
:100E400004C080924701109248010E94740260938E
:100E50001F017093200180932101909322012B01A7
:100E60003C0122E3420E511C611C711C0E94740261
:100E70006415750586059705C8F30E948C01E6CDBB
:100E800096E3C92E91E0D92E7E0102E310E021E124
:100E900030E040E150E063E170E082E190E00E94E8
:100EA0008C023DCF88E3C82E81E0D82E7E0102E37C
:100EB00010E024E030E043E050E066E070E085E0E0
:100EC00090E00E948C0246CF0E94A60708F481E0C1
:100ED0000895E89409C097FB3EF49095809570952D
:100EE00061957F4F8F4F9F4F9923A9F0F92F96E976
:100EF000BB279395F695879577956795B795F111EB
:100F0000F8CFFAF4BB0F11F460FF1BC06F5F7F4F87
:100F10008F4F9F4F16C0882311F096E911C0772399
:100F200021F09EE8872F762F05C0662371F096E8A2
:100F3000862F70E060E02AF09A95660F771F881F71
:100F4000DAF7880F9695879597F90895990F000815
:100F5000550FAA0BE0E8FEEF16161706E807F9078B
:100F6000C0F012161306E407F50798F0621B730B26
:100F7000840B950B39F40A2661F0232B242B252BA7
:100F800021F408950A2609F4A140A6958FEF811D4A
:100F9000811D08950E94A60708F48FEF08950E940E
:100FA000E2070C9453080E94450838F00E944C0850
:100FB00020F0952311F00C943C080C944208112465
:100FC0000C9487080E94640870F3959FC1F3950FF5
:100FD00050E0551F629FF001729FBB27F00DB11DBD
:100FE000639FAA27F00DB11DAA1F649F6627B00D4D
:100FF000A11D661F829F2227B00DA11D621F739F36
:10100000B00DA11D621F839FA00D611D221F749F43
:101010003327A00D611D231F849F600D211D822F8A
:10102000762F6A2F11249F5750409AF0F1F08823B1
:101030004AF0EE0FFF1FBB1F661F771F881F9150DE
:101040005040A9F79E3F510580F00C943C080C9449
:1010500087085F3FE4F3983ED4F3869577956795CC
:10106000B795F795E7959F5FC1F7FE2B880F911D08
:101070009695879597F9089597F99F6780E870E0AE
:1010800060E008959FEF80EC089500240A941616FE
:10109000170618060906089500240A941216130666
:1010A000140605060895092E0394000C11F48823F4
:1010B00052F0BB0F40F4BF2B11F460FF04C06F5F10
:1010C0007F4F8F4F9F4F089557FD9058440F551FE6
:1010D00059F05F3F71F04795880F97FB991F61F0BA
:1010E0009F3F79F087950895121613061406551F31
:1010F000F2CF4695F1DF08C0161617061806991F9D
:10110000F1CF86957105610508940895E894BB2791
:1011100066277727CB0197F9089597FB072E16F4DA
:10112000009407D077FD09D00E94A10807FC05D0E4
:101130003EF4909581959F4F0895709561957F4FEE
:101140000895AA1BBB1B51E107C0AA1FBB1FA6170E
:10115000B70710F0A61BB70B881F991F5A95A9F760
:1011600080959095BC01CD010895EE0FFF1F05906D
:10117000F491E02D099481E090E0F8940C94C0087B
:04118000F894FFCF11
:101184008B028B020000000023018C00BB006A016B
:06119400EC00CA00DE00C1
:00000001FF
